{
  "contractName": "CandleAuction",
  "abi": [
    {
      "inputs": [
        {
          "internalType": "uint256",
          "name": "_biddingTime",
          "type": "uint256"
        },
        {
          "internalType": "uint256",
          "name": "_minIncrement",
          "type": "uint256"
        }
      ],
      "stateMutability": "nonpayable",
      "type": "constructor"
    },
    {
      "anonymous": false,
      "inputs": [],
      "name": "AuctionCanceled",
      "type": "event"
    },
    {
      "anonymous": false,
      "inputs": [
        {
          "indexed": false,
          "internalType": "address",
          "name": "winner",
          "type": "address"
        },
        {
          "indexed": false,
          "internalType": "uint256",
          "name": "amount",
          "type": "uint256"
        }
      ],
      "name": "AuctionEnded",
      "type": "event"
    },
    {
      "anonymous": false,
      "inputs": [
        {
          "indexed": false,
          "internalType": "uint256",
          "name": "endBlock",
          "type": "uint256"
        }
      ],
      "name": "AuctionStarted",
      "type": "event"
    },
    {
      "anonymous": false,
      "inputs": [
        {
          "indexed": true,
          "internalType": "address",
          "name": "bidder",
          "type": "address"
        },
        {
          "indexed": false,
          "internalType": "uint256",
          "name": "amount",
          "type": "uint256"
        }
      ],
      "name": "NewBid",
      "type": "event"
    },
    {
      "anonymous": false,
      "inputs": [
        {
          "indexed": true,
          "internalType": "address",
          "name": "bidder",
          "type": "address"
        },
        {
          "indexed": false,
          "internalType": "uint256",
          "name": "amount",
          "type": "uint256"
        }
      ],
      "name": "Withdrawal",
      "type": "event"
    },
    {
      "inputs": [
        {
          "internalType": "address",
          "name": "",
          "type": "address"
        }
      ],
      "name": "bids",
      "outputs": [
        {
          "internalType": "uint256",
          "name": "",
          "type": "uint256"
        }
      ],
      "stateMutability": "view",
      "type": "function"
    },
    {
      "inputs": [],
      "name": "canceled",
      "outputs": [
        {
          "internalType": "bool",
          "name": "",
          "type": "bool"
        }
      ],
      "stateMutability": "view",
      "type": "function"
    },
    {
      "inputs": [],
      "name": "endBlock",
      "outputs": [
        {
          "internalType": "uint256",
          "name": "",
          "type": "uint256"
        }
      ],
      "stateMutability": "view",
      "type": "function"
    },
    {
      "inputs": [],
      "name": "ended",
      "outputs": [
        {
          "internalType": "bool",
          "name": "",
          "type": "bool"
        }
      ],
      "stateMutability": "view",
      "type": "function"
    },
    {
      "inputs": [],
      "name": "highestBid",
      "outputs": [
        {
          "internalType": "uint256",
          "name": "",
          "type": "uint256"
        }
      ],
      "stateMutability": "view",
      "type": "function"
    },
    {
      "inputs": [],
      "name": "highestBidder",
      "outputs": [
        {
          "internalType": "address",
          "name": "",
          "type": "address"
        }
      ],
      "stateMutability": "view",
      "type": "function"
    },
    {
      "inputs": [],
      "name": "minIncrement",
      "outputs": [
        {
          "internalType": "uint256",
          "name": "",
          "type": "uint256"
        }
      ],
      "stateMutability": "view",
      "type": "function"
    },
    {
      "inputs": [],
      "name": "owner",
      "outputs": [
        {
          "internalType": "address",
          "name": "",
          "type": "address"
        }
      ],
      "stateMutability": "view",
      "type": "function"
    },
    {
      "inputs": [],
      "name": "bid",
      "outputs": [],
      "stateMutability": "payable",
      "type": "function"
    },
    {
      "inputs": [],
      "name": "withdraw",
      "outputs": [],
      "stateMutability": "nonpayable",
      "type": "function"
    },
    {
      "inputs": [],
      "name": "endAuction",
      "outputs": [],
      "stateMutability": "nonpayable",
      "type": "function"
    },
    {
      "inputs": [],
      "name": "cancelAuction",
      "outputs": [],
      "stateMutability": "nonpayable",
      "type": "function"
    }
  ],
  "bytecode": "0x60806040523480156200001157600080fd5b5060405162001397380380620013978339818101604052810190620000379190620000f5565b600160008190555033600160006101000a81548173ffffffffffffffffffffffffffffffffffffffff021916908373ffffffffffffffffffffffffffffffffffffffff16021790555081436200008e919062000164565b600281905550806007819055507f1bb96dff6ab5005aff98cdc0cf176bb7d8e0423cb48e02217d35b042cec81e9f600254604051620000ce919062000147565b60405180910390a1505062000214565b600081519050620000ef81620001fa565b92915050565b600080604083850312156200010957600080fd5b60006200011985828601620000de565b92505060206200012c85828601620000de565b9150509250929050565b6200014181620001c1565b82525050565b60006020820190506200015e600083018462000136565b92915050565b60006200017182620001c1565b91506200017e83620001c1565b9250827fffffffffffffffffffffffffffffffffffffffffffffffffffffffffffffffff03821115620001b657620001b5620001cb565b5b828201905092915050565b6000819050919050565b7f4e487b7100000000000000000000000000000000000000000000000000000000600052601160045260246000fd5b6200020581620001c1565b81146200021157600080fd5b50565b61117380620002246000396000f3fe6080604052600436106100a75760003560e01c80638afcb14d116100645780638afcb14d1461018b5780638da5cb5b146101b65780638fa8b790146101e157806391f90157146101f8578063d57bde7914610223578063fe67a54b1461024e576100a7565b8063083c6323146100ac57806312fa6feb146100d75780631998aeef146101025780633ccfd60b1461010c5780633f9942ff1461012357806362ea82db1461014e575b600080fd5b3480156100b857600080fd5b506100c1610265565b6040516100ce9190611022565b60405180910390f35b3480156100e357600080fd5b506100ec61026b565b6040516100f99190610ee7565b60405180910390f35b61010a61027e565b005b34801561011857600080fd5b506101216104ba565b005b34801561012f57600080fd5b506101386106da565b6040516101459190610ee7565b60405180910390f35b34801561015a57600080fd5b5061017560048036038101906101709190610bde565b6106ed565b6040516101829190611022565b60405180910390f35b34801561019757600080fd5b506101a0610705565b6040516101ad9190611022565b60405180910390f35b3480156101c257600080fd5b506101cb61070b565b6040516101d89190610ea3565b60405180910390f35b3480156101ed57600080fd5b506101f6610731565b005b34801561020457600080fd5b5061020d6108d7565b60405161021a9190610ea3565b60405180910390f35b34801561022f57600080fd5b506102386108fd565b6040516102459190611022565b60405180910390f35b34801561025a57600080fd5b50610263610903565b005b60025481565b600660009054906101000a900460ff1681565b600254431115801561029d5750600660009054906101000a900460ff16155b80156102b65750600660019054906101000a900460ff16155b6102f5576040517f08c379a00000000000000000000000000000000000000000000000000000000081526004016102ec90610f62565b60405180910390fd5b6002600054141561033b576040517f08c379a000000000000000000000000000000000000000000000000000000000815260040161033290610fc2565b60405180910390fd5b60026000819055506007546003546103539190611059565b341015610395576040517f08c379a000000000000000000000000000000000000000000000000000000000815260040161038c90610fe2565b60405180910390fd5b60006003541461041a5760035460056000600460009054906101000a900473ffffffffffffffffffffffffffffffffffffffff1673ffffffffffffffffffffffffffffffffffffffff1673ffffffffffffffffffffffffffffffffffffffff16815260200190815260200160002060008282546104129190611059565b925050819055505b33600460006101000a81548173ffffffffffffffffffffffffffffffffffffffff021916908373ffffffffffffffffffffffffffffffffffffffff160217905550346003819055503373ffffffffffffffffffffffffffffffffffffffff167fdd0b6c6a77960e2066c96171b4d7ac9e8b4c184011f38544afa36a5bb63ec59f346040516104a89190611022565b60405180910390a26001600081905550565b60026000541415610500576040517f08c379a00000000000000000000000000000000000000000000000000000000081526004016104f790610fc2565b60405180910390fd5b60026000819055506000600560003373ffffffffffffffffffffffffffffffffffffffff1673ffffffffffffffffffffffffffffffffffffffff1681526020019081526020016000205490506000811161058f576040517f08c379a000000000000000000000000000000000000000000000000000000000815260040161058690610f42565b60405180910390fd5b6000600560003373ffffffffffffffffffffffffffffffffffffffff1673ffffffffffffffffffffffffffffffffffffffff1681526020019081526020016000208190555060003373ffffffffffffffffffffffffffffffffffffffff16826040516105fa90610e8e565b60006040518083038185875af1925050503d8060008114610637576040519150601f19603f3d011682016040523d82523d6000602084013e61063c565b606091505b5050905080610680576040517f08c379a000000000000000000000000000000000000000000000000000000000815260040161067790610f02565b60405180910390fd5b3373ffffffffffffffffffffffffffffffffffffffff167f7fcf532c15f0a6db0bd6d0e038bea71d30d808c7d98cb3bf7268a95bf5081b65836040516106c69190611022565b60405180910390a250506001600081905550565b600660019054906101000a900460ff1681565b60056020528060005260406000206000915090505481565b60075481565b600160009054906101000a900473ffffffffffffffffffffffffffffffffffffffff1681565b600160009054906101000a900473ffffffffffffffffffffffffffffffffffffffff1673ffffffffffffffffffffffffffffffffffffffff163373ffffffffffffffffffffffffffffffffffffffff16146107c1576040517f08c379a00000000000000000000000000000000000000000000000000000000081526004016107b890611002565b60405180910390fd5b60025443111580156107e05750600660009054906101000a900460ff16155b80156107f95750600660019054906101000a900460ff16155b610838576040517f08c379a000000000000000000000000000000000000000000000000000000000815260040161082f90610f62565b60405180910390fd5b6002600054141561087e576040517f08c379a000000000000000000000000000000000000000000000000000000000815260040161087590610fc2565b60405180910390fd5b60026000819055506001600660016101000a81548160ff0219169083151502179055507f3edab9d02702b82c68bc3a966d302af41abe4f3d8e2408b27b94e5f9bf2d722c60405160405180910390a16001600081905550565b600460009054906101000a900473ffffffffffffffffffffffffffffffffffffffff1681565b60035481565b600160009054906101000a900473ffffffffffffffffffffffffffffffffffffffff1673ffffffffffffffffffffffffffffffffffffffff163373ffffffffffffffffffffffffffffffffffffffff1614610993576040517f08c379a000000000000000000000000000000000000000000000000000000000815260040161098a90611002565b60405180910390fd5b600260005414156109d9576040517f08c379a00000000000000000000000000000000000000000000000000000000081526004016109d090610fc2565b60405180910390fd5b6002600081905550600254431015610a26576040517f08c379a0000000000000000000000000000000000000000000000000000000008152600401610a1d90610fa2565b60405180910390fd5b600660009054906101000a900460ff1615610a76576040517f08c379a0000000000000000000000000000000000000000000000000000000008152600401610a6d90610f22565b60405180910390fd5b6001600660006101000a81548160ff0219169083151502179055507fdaec4582d5d9595688c8c98545fdd1c696d41c6aeaeb636737e84ed2f5c00eda600460009054906101000a900473ffffffffffffffffffffffffffffffffffffffff16600354604051610ae6929190610ebe565b60405180910390a16000600160009054906101000a900473ffffffffffffffffffffffffffffffffffffffff1673ffffffffffffffffffffffffffffffffffffffff16600354604051610b3890610e8e565b60006040518083038185875af1925050503d8060008114610b75576040519150601f19603f3d011682016040523d82523d6000602084013e610b7a565b606091505b5050905080610bbe576040517f08c379a0000000000000000000000000000000000000000000000000000000008152600401610bb590610f82565b60405180910390fd5b506001600081905550565b600081359050610bd881611126565b92915050565b600060208284031215610bf057600080fd5b6000610bfe84828501610bc9565b91505092915050565b610c10816110af565b82525050565b610c1f816110c1565b82525050565b6000610c32600f83611048565b91507f5472616e73666572206661696c656400000000000000000000000000000000006000830152602082019050919050565b6000610c72601583611048565b91507f41756374696f6e20616c726561647920656e64656400000000000000000000006000830152602082019050919050565b6000610cb2601483611048565b91507f4e6f2066756e647320746f2077697468647261770000000000000000000000006000830152602082019050919050565b6000610cf2601d83611048565b91507f41756374696f6e2068617320656e646564206f722063616e63656c65640000006000830152602082019050919050565b6000610d32601883611048565b91507f5472616e7366657220746f206f776e6572206661696c656400000000000000006000830152602082019050919050565b6000610d72601583611048565b91507f41756374696f6e206e6f742079657420656e64656400000000000000000000006000830152602082019050919050565b6000610db260008361103d565b9150600082019050919050565b6000610dcc601f83611048565b91507f5265656e7472616e637947756172643a207265656e7472616e742063616c6c006000830152602082019050919050565b6000610e0c601583611048565b91507f42696420696e6372656d656e7420746f6f206c6f7700000000000000000000006000830152602082019050919050565b6000610e4c601683611048565b91507f4e6f742074686520636f6e7472616374206f776e6572000000000000000000006000830152602082019050919050565b610e88816110ed565b82525050565b6000610e9982610da5565b9150819050919050565b6000602082019050610eb86000830184610c07565b92915050565b6000604082019050610ed36000830185610c07565b610ee06020830184610e7f565b9392505050565b6000602082019050610efc6000830184610c16565b92915050565b60006020820190508181036000830152610f1b81610c25565b9050919050565b60006020820190508181036000830152610f3b81610c65565b9050919050565b60006020820190508181036000830152610f5b81610ca5565b9050919050565b60006020820190508181036000830152610f7b81610ce5565b9050919050565b60006020820190508181036000830152610f9b81610d25565b9050919050565b60006020820190508181036000830152610fbb81610d65565b9050919050565b60006020820190508181036000830152610fdb81610dbf565b9050919050565b60006020820190508181036000830152610ffb81610dff565b9050919050565b6000602082019050818103600083015261101b81610e3f565b9050919050565b60006020820190506110376000830184610e7f565b92915050565b600081905092915050565b600082825260208201905092915050565b6000611064826110ed565b915061106f836110ed565b9250827fffffffffffffffffffffffffffffffffffffffffffffffffffffffffffffffff038211156110a4576110a36110f7565b5b828201905092915050565b60006110ba826110cd565b9050919050565b60008115159050919050565b600073ffffffffffffffffffffffffffffffffffffffff82169050919050565b6000819050919050565b7f4e487b7100000000000000000000000000000000000000000000000000000000600052601160045260246000fd5b61112f816110af565b811461113a57600080fd5b5056fea2646970667358221220f86c44599376a41befe73ba31e87053a8caa3cfe5d70eabf7c4c04c53b6f09ef64736f6c63430008000033",
  "immutableReferences": {},
  "source": "// contracts/CandleAuction.sol\r\n// SPDX-License-Identifier: MIT\r\npragma solidity ^0.8.0;\r\n\r\nimport \"@openzeppelin/contracts/security/ReentrancyGuard.sol\";\r\n\r\ncontract CandleAuction is ReentrancyGuard {\r\n    address public owner;\r\n    uint public endBlock;\r\n    uint public highestBid;\r\n    address public highestBidder;\r\n    mapping(address => uint) public bids;\r\n    bool public ended;\r\n    bool public canceled;\r\n    uint public minIncrement;\r\n\r\n    event AuctionStarted(uint endBlock);\r\n    event NewBid(address indexed bidder, uint amount);\r\n    event AuctionEnded(address winner, uint amount);\r\n    event AuctionCanceled();\r\n    event Withdrawal(address indexed bidder, uint amount);\r\n\r\n    modifier onlyOwner() {\r\n        require(msg.sender == owner, \"Not the contract owner\");\r\n        _;\r\n    }\r\n\r\n    modifier auctionOngoing() {\r\n        require(block.number <= endBlock && !ended && !canceled, \"Auction has ended or canceled\");\r\n        _;\r\n    }\r\n\r\n    constructor(uint _biddingTime, uint _minIncrement) {\r\n        owner = msg.sender;\r\n        endBlock = block.number + _biddingTime;\r\n        minIncrement = _minIncrement;\r\n        emit AuctionStarted(endBlock);\r\n    }\r\n\r\n    function bid() external payable auctionOngoing nonReentrant {\r\n        require(msg.value >= highestBid + minIncrement, \"Bid increment too low\");\r\n\r\n        if (highestBid != 0) {\r\n            bids[highestBidder] += highestBid;\r\n        }\r\n\r\n        highestBidder = msg.sender;\r\n        highestBid = msg.value;\r\n        emit NewBid(msg.sender, msg.value);\r\n    }\r\n\r\n    function withdraw() external nonReentrant {\r\n        uint amount = bids[msg.sender];\r\n        require(amount > 0, \"No funds to withdraw\");\r\n\r\n        bids[msg.sender] = 0;\r\n\r\n        (bool success, ) = msg.sender.call{value: amount}(\"\");\r\n        require(success, \"Transfer failed\");\r\n\r\n        emit Withdrawal(msg.sender, amount);\r\n    }\r\n\r\n    function endAuction() external onlyOwner nonReentrant {\r\n        require(block.number >= endBlock, \"Auction not yet ended\");\r\n        require(!ended, \"Auction already ended\");\r\n\r\n        ended = true;\r\n        emit AuctionEnded(highestBidder, highestBid);\r\n\r\n        (bool success, ) = owner.call{value: highestBid}(\"\");\r\n        require(success, \"Transfer to owner failed\");\r\n    }\r\n\r\n    function cancelAuction() external onlyOwner auctionOngoing nonReentrant {\r\n        canceled = true;\r\n        emit AuctionCanceled();\r\n    }\r\n}\r\n",
  "sourcePath": "D:\\Solana Assignment\\CandleAuction\\contracts\\CandleAuction.sol",
  "compiler": {
    "name": "solc",
    "version": "0.8.0+commit.c7dfd78e.Emscripten.clang"
  },
  "schemaVersion": "3.4.16",
  "updatedAt": "2024-07-24T13:11:58.589Z",
  "devdoc": {
    "kind": "dev",
    "methods": {},
    "version": 1
  },
  "userdoc": {
    "kind": "user",
    "methods": {},
    "version": 1
  }
}